{
  "_format": "hh-sol-artifact-1",
  "contractName": "Counter",
  "sourceName": "contracts/counter.sol",
  "abi": [
    {
      "inputs": [],
      "stateMutability": "nonpayable",
      "type": "constructor"
    },
    {
      "anonymous": false,
      "inputs": [
        {
          "indexed": false,
          "internalType": "int256",
          "name": "newCount",
          "type": "int256"
        },
        {
          "indexed": false,
          "internalType": "address",
          "name": "decrementedBy",
          "type": "address"
        }
      ],
      "name": "CountDecremented",
      "type": "event"
    },
    {
      "anonymous": false,
      "inputs": [
        {
          "indexed": false,
          "internalType": "int256",
          "name": "newCount",
          "type": "int256"
        },
        {
          "indexed": false,
          "internalType": "address",
          "name": "incrementedBy",
          "type": "address"
        }
      ],
      "name": "CountIncremented",
      "type": "event"
    },
    {
      "anonymous": false,
      "inputs": [
        {
          "indexed": false,
          "internalType": "address",
          "name": "resetBy",
          "type": "address"
        }
      ],
      "name": "CountReset",
      "type": "event"
    },
    {
      "inputs": [],
      "name": "count",
      "outputs": [
        {
          "internalType": "int256",
          "name": "",
          "type": "int256"
        }
      ],
      "stateMutability": "view",
      "type": "function"
    },
    {
      "inputs": [],
      "name": "decrement",
      "outputs": [],
      "stateMutability": "nonpayable",
      "type": "function"
    },
    {
      "inputs": [],
      "name": "getCount",
      "outputs": [
        {
          "internalType": "int256",
          "name": "",
          "type": "int256"
        }
      ],
      "stateMutability": "view",
      "type": "function"
    },
    {
      "inputs": [],
      "name": "increment",
      "outputs": [],
      "stateMutability": "nonpayable",
      "type": "function"
    },
    {
      "inputs": [],
      "name": "reset",
      "outputs": [],
      "stateMutability": "nonpayable",
      "type": "function"
    }
  ],
  "bytecode": "0x6080604052348015600f57600080fd5b5060008081905550610356806100266000396000f3fe608060405234801561001057600080fd5b50600436106100575760003560e01c806306661abd1461005c5780632baeceb71461007a578063a87d942c14610084578063d09de08a146100a2578063d826f88f146100ac575b600080fd5b6100646100b6565b60405161007191906101ca565b60405180910390f35b6100826100bc565b005b61008c610112565b60405161009991906101ca565b60405180910390f35b6100aa61011b565b005b6100b4610171565b005b60005481565b60016000808282546100ce9190610214565b925050819055507fae279edabb8c50e2ffb128ba2fa9f478aaf6994adc0ab4c55f05e62bee96f6a260005433604051610108929190610298565b60405180910390a1565b60008054905090565b600160008082825461012d91906102c1565b925050819055507f8f219acc7658ed27ca8d7c89b6337393728c22155a0a592ec82393e0b697d1f760005433604051610167929190610298565b60405180910390a1565b600080819055507fa5ee6258204973c56c5a39c4ac31e61723f410d84f9e8117ba52b76b7cea990c336040516101a79190610305565b60405180910390a1565b6000819050919050565b6101c4816101b1565b82525050565b60006020820190506101df60008301846101bb565b92915050565b7f4e487b7100000000000000000000000000000000000000000000000000000000600052601160045260246000fd5b600061021f826101b1565b915061022a836101b1565b9250828203905081811260008412168282136000851215161715610251576102506101e5565b5b92915050565b600073ffffffffffffffffffffffffffffffffffffffff82169050919050565b600061028282610257565b9050919050565b61029281610277565b82525050565b60006040820190506102ad60008301856101bb565b6102ba6020830184610289565b9392505050565b60006102cc826101b1565b91506102d7836101b1565b9250828201905082811215600083121683821260008412151617156102ff576102fe6101e5565b5b92915050565b600060208201905061031a6000830184610289565b9291505056fea264697066735822122059270d6224234b318dd7ec41b11339a0458fa3457a00b3e1d6363786b360529964736f6c634300081c0033",
  "linkReferences": {},
  "deployedLinkReferences": {}
}