{"contracts/counter.sol":{"Counter":{"abi":[{"inputs":[],"stateMutability":"nonpayable","type":"constructor"},{"anonymous":false,"inputs":[{"indexed":false,"internalType":"int256","name":"newCount","type":"int256"},{"indexed":false,"internalType":"address","name":"decrementedBy","type":"address"}],"name":"CountDecremented","type":"event"},{"anonymous":false,"inputs":[{"indexed":false,"internalType":"int256","name":"newCount","type":"int256"},{"indexed":false,"internalType":"address","name":"incrementedBy","type":"address"}],"name":"CountIncremented","type":"event"},{"anonymous":false,"inputs":[{"indexed":false,"internalType":"address","name":"resetBy","type":"address"}],"name":"CountReset","type":"event"},{"inputs":[],"name":"count","outputs":[{"internalType":"int256","name":"","type":"int256"}],"stateMutability":"view","type":"function"},{"inputs":[],"name":"decrement","outputs":[],"stateMutability":"nonpayable","type":"function"},{"inputs":[],"name":"getCount","outputs":[{"internalType":"int256","name":"","type":"int256"}],"stateMutability":"view","type":"function"},{"inputs":[],"name":"increment","outputs":[],"stateMutability":"nonpayable","type":"function"},{"inputs":[],"name":"reset","outputs":[],"stateMutability":"nonpayable","type":"function"}],"evm":{"bytecode":{"linkReferences":{},"object":"6080604052348015600f57600080fd5b5060008081905550610356806100266000396000f3fe608060405234801561001057600080fd5b50600436106100575760003560e01c806306661abd1461005c5780632baeceb71461007a578063a87d942c14610084578063d09de08a146100a2578063d826f88f146100ac575b600080fd5b6100646100b6565b60405161007191906101ca565b60405180910390f35b6100826100bc565b005b61008c610112565b60405161009991906101ca565b60405180910390f35b6100aa61011b565b005b6100b4610171565b005b60005481565b60016000808282546100ce9190610214565b925050819055507fae279edabb8c50e2ffb128ba2fa9f478aaf6994adc0ab4c55f05e62bee96f6a260005433604051610108929190610298565b60405180910390a1565b60008054905090565b600160008082825461012d91906102c1565b925050819055507f8f219acc7658ed27ca8d7c89b6337393728c22155a0a592ec82393e0b697d1f760005433604051610167929190610298565b60405180910390a1565b600080819055507fa5ee6258204973c56c5a39c4ac31e61723f410d84f9e8117ba52b76b7cea990c336040516101a79190610305565b60405180910390a1565b6000819050919050565b6101c4816101b1565b82525050565b60006020820190506101df60008301846101bb565b92915050565b7f4e487b7100000000000000000000000000000000000000000000000000000000600052601160045260246000fd5b600061021f826101b1565b915061022a836101b1565b9250828203905081811260008412168282136000851215161715610251576102506101e5565b5b92915050565b600073ffffffffffffffffffffffffffffffffffffffff82169050919050565b600061028282610257565b9050919050565b61029281610277565b82525050565b60006040820190506102ad60008301856101bb565b6102ba6020830184610289565b9392505050565b60006102cc826101b1565b91506102d7836101b1565b9250828201905082811215600083121683821260008412151617156102ff576102fe6101e5565b5b92915050565b600060208201905061031a6000830184610289565b9291505056fea264697066735822122059270d6224234b318dd7ec41b11339a0458fa3457a00b3e1d6363786b360529964736f6c634300081c0033","opcodes":"PUSH1 0x80 PUSH1 0x40 MSTORE CALLVALUE DUP1 ISZERO PUSH1 0xF JUMPI PUSH1 0x0 DUP1 REVERT JUMPDEST POP PUSH1 0x0 DUP1 DUP2 SWAP1 SSTORE POP PUSH2 0x356 DUP1 PUSH2 0x26 PUSH1 0x0 CODECOPY PUSH1 0x0 RETURN INVALID PUSH1 0x80 PUSH1 0x40 MSTORE CALLVALUE DUP1 ISZERO PUSH2 0x10 JUMPI PUSH1 0x0 DUP1 REVERT JUMPDEST POP PUSH1 0x4 CALLDATASIZE LT PUSH2 0x57 JUMPI PUSH1 0x0 CALLDATALOAD PUSH1 0xE0 SHR DUP1 PUSH4 0x6661ABD EQ PUSH2 0x5C JUMPI DUP1 PUSH4 0x2BAECEB7 EQ PUSH2 0x7A JUMPI DUP1 PUSH4 0xA87D942C EQ PUSH2 0x84 JUMPI DUP1 PUSH4 0xD09DE08A EQ PUSH2 0xA2 JUMPI DUP1 PUSH4 0xD826F88F EQ PUSH2 0xAC JUMPI JUMPDEST PUSH1 0x0 DUP1 REVERT JUMPDEST PUSH2 0x64 PUSH2 0xB6 JUMP JUMPDEST PUSH1 0x40 MLOAD PUSH2 0x71 SWAP2 SWAP1 PUSH2 0x1CA JUMP JUMPDEST PUSH1 0x40 MLOAD DUP1 SWAP2 SUB SWAP1 RETURN JUMPDEST PUSH2 0x82 PUSH2 0xBC JUMP JUMPDEST STOP JUMPDEST PUSH2 0x8C PUSH2 0x112 JUMP JUMPDEST PUSH1 0x40 MLOAD PUSH2 0x99 SWAP2 SWAP1 PUSH2 0x1CA JUMP JUMPDEST PUSH1 0x40 MLOAD DUP1 SWAP2 SUB SWAP1 RETURN JUMPDEST PUSH2 0xAA PUSH2 0x11B JUMP JUMPDEST STOP JUMPDEST PUSH2 0xB4 PUSH2 0x171 JUMP JUMPDEST STOP JUMPDEST PUSH1 0x0 SLOAD DUP2 JUMP JUMPDEST PUSH1 0x1 PUSH1 0x0 DUP1 DUP3 DUP3 SLOAD PUSH2 0xCE SWAP2 SWAP1 PUSH2 0x214 JUMP JUMPDEST SWAP3 POP POP DUP2 SWAP1 SSTORE POP PUSH32 0xAE279EDABB8C50E2FFB128BA2FA9F478AAF6994ADC0AB4C55F05E62BEE96F6A2 PUSH1 0x0 SLOAD CALLER PUSH1 0x40 MLOAD PUSH2 0x108 SWAP3 SWAP2 SWAP1 PUSH2 0x298 JUMP JUMPDEST PUSH1 0x40 MLOAD DUP1 SWAP2 SUB SWAP1 LOG1 JUMP JUMPDEST PUSH1 0x0 DUP1 SLOAD SWAP1 POP SWAP1 JUMP JUMPDEST PUSH1 0x1 PUSH1 0x0 DUP1 DUP3 DUP3 SLOAD PUSH2 0x12D SWAP2 SWAP1 PUSH2 0x2C1 JUMP JUMPDEST SWAP3 POP POP DUP2 SWAP1 SSTORE POP PUSH32 0x8F219ACC7658ED27CA8D7C89B6337393728C22155A0A592EC82393E0B697D1F7 PUSH1 0x0 SLOAD CALLER PUSH1 0x40 MLOAD PUSH2 0x167 SWAP3 SWAP2 SWAP1 PUSH2 0x298 JUMP JUMPDEST PUSH1 0x40 MLOAD DUP1 SWAP2 SUB SWAP1 LOG1 JUMP JUMPDEST PUSH1 0x0 DUP1 DUP2 SWAP1 SSTORE POP PUSH32 0xA5EE6258204973C56C5A39C4AC31E61723F410D84F9E8117BA52B76B7CEA990C CALLER PUSH1 0x40 MLOAD PUSH2 0x1A7 SWAP2 SWAP1 PUSH2 0x305 JUMP JUMPDEST PUSH1 0x40 MLOAD DUP1 SWAP2 SUB SWAP1 LOG1 JUMP JUMPDEST PUSH1 0x0 DUP2 SWAP1 POP SWAP2 SWAP1 POP JUMP JUMPDEST PUSH2 0x1C4 DUP2 PUSH2 0x1B1 JUMP JUMPDEST DUP3 MSTORE POP POP JUMP JUMPDEST PUSH1 0x0 PUSH1 0x20 DUP3 ADD SWAP1 POP PUSH2 0x1DF PUSH1 0x0 DUP4 ADD DUP5 PUSH2 0x1BB JUMP JUMPDEST SWAP3 SWAP2 POP POP JUMP JUMPDEST PUSH32 0x4E487B7100000000000000000000000000000000000000000000000000000000 PUSH1 0x0 MSTORE PUSH1 0x11 PUSH1 0x4 MSTORE PUSH1 0x24 PUSH1 0x0 REVERT JUMPDEST PUSH1 0x0 PUSH2 0x21F DUP3 PUSH2 0x1B1 JUMP JUMPDEST SWAP2 POP PUSH2 0x22A DUP4 PUSH2 0x1B1 JUMP JUMPDEST SWAP3 POP DUP3 DUP3 SUB SWAP1 POP DUP2 DUP2 SLT PUSH1 0x0 DUP5 SLT AND DUP3 DUP3 SGT PUSH1 0x0 DUP6 SLT ISZERO AND OR ISZERO PUSH2 0x251 JUMPI PUSH2 0x250 PUSH2 0x1E5 JUMP JUMPDEST JUMPDEST SWAP3 SWAP2 POP POP JUMP JUMPDEST PUSH1 0x0 PUSH20 0xFFFFFFFFFFFFFFFFFFFFFFFFFFFFFFFFFFFFFFFF DUP3 AND SWAP1 POP SWAP2 SWAP1 POP JUMP JUMPDEST PUSH1 0x0 PUSH2 0x282 DUP3 PUSH2 0x257 JUMP JUMPDEST SWAP1 POP SWAP2 SWAP1 POP JUMP JUMPDEST PUSH2 0x292 DUP2 PUSH2 0x277 JUMP JUMPDEST DUP3 MSTORE POP POP JUMP JUMPDEST PUSH1 0x0 PUSH1 0x40 DUP3 ADD SWAP1 POP PUSH2 0x2AD PUSH1 0x0 DUP4 ADD DUP6 PUSH2 0x1BB JUMP JUMPDEST PUSH2 0x2BA PUSH1 0x20 DUP4 ADD DUP5 PUSH2 0x289 JUMP JUMPDEST SWAP4 SWAP3 POP POP POP JUMP JUMPDEST PUSH1 0x0 PUSH2 0x2CC DUP3 PUSH2 0x1B1 JUMP JUMPDEST SWAP2 POP PUSH2 0x2D7 DUP4 PUSH2 0x1B1 JUMP JUMPDEST SWAP3 POP DUP3 DUP3 ADD SWAP1 POP DUP3 DUP2 SLT ISZERO PUSH1 0x0 DUP4 SLT AND DUP4 DUP3 SLT PUSH1 0x0 DUP5 SLT ISZERO AND OR ISZERO PUSH2 0x2FF JUMPI PUSH2 0x2FE PUSH2 0x1E5 JUMP JUMPDEST JUMPDEST SWAP3 SWAP2 POP POP JUMP JUMPDEST PUSH1 0x0 PUSH1 0x20 DUP3 ADD SWAP1 POP PUSH2 0x31A PUSH1 0x0 DUP4 ADD DUP5 PUSH2 0x289 JUMP JUMPDEST SWAP3 SWAP2 POP POP JUMP INVALID LOG2 PUSH5 0x6970667358 0x22 SLT KECCAK256 MSIZE 0x27 0xD PUSH3 0x24234B BALANCE DUP14 0xD7 0xEC COINBASE 0xB1 SGT CODECOPY LOG0 GASLIMIT DUP16 LOG3 GASLIMIT PUSH27 0xB3E1D6363786B360529964736F6C634300081C00330000000000 "},"methodIdentifiers":{"count()":"06661abd","decrement()":"2baeceb7","getCount()":"a87d942c","increment()":"d09de08a","reset()":"d826f88f"}}}}}