{"contracts/counter.sol":{"Counter":{"abi":[{"inputs":[],"stateMutability":"nonpayable","type":"constructor"},{"inputs":[],"name":"count","outputs":[{"internalType":"int256","name":"","type":"int256"}],"stateMutability":"view","type":"function"},{"inputs":[],"name":"decrement","outputs":[],"stateMutability":"nonpayable","type":"function"},{"inputs":[],"name":"getCount","outputs":[{"internalType":"int256","name":"","type":"int256"}],"stateMutability":"view","type":"function"},{"inputs":[],"name":"increment","outputs":[],"stateMutability":"nonpayable","type":"function"},{"inputs":[],"name":"reset","outputs":[],"stateMutability":"nonpayable","type":"function"}],"evm":{"bytecode":{"linkReferences":{},"object":"6080604052348015600f57600080fd5b5060008081905550610224806100266000396000f3fe608060405234801561001057600080fd5b50600436106100575760003560e01c806306661abd1461005c5780632baeceb71461007a578063a87d942c14610084578063d09de08a146100a2578063d826f88f146100ac575b600080fd5b6100646100b6565b604051610071919061011d565b60405180910390f35b6100826100bc565b005b61008c6100d7565b604051610099919061011d565b60405180910390f35b6100aa6100e0565b005b6100b46100fb565b005b60005481565b60016000808282546100ce9190610167565b92505081905550565b60008054905090565b60016000808282546100f291906101aa565b92505081905550565b60008081905550565b6000819050919050565b61011781610104565b82525050565b6000602082019050610132600083018461010e565b92915050565b7f4e487b7100000000000000000000000000000000000000000000000000000000600052601160045260246000fd5b600061017282610104565b915061017d83610104565b92508282039050818112600084121682821360008512151617156101a4576101a3610138565b5b92915050565b60006101b582610104565b91506101c083610104565b9250828201905082811215600083121683821260008412151617156101e8576101e7610138565b5b9291505056fea26469706673582212200e002d2bc0252b3a204bd298126daffb579bef0f01c52e53691ea3210f2ab65464736f6c634300081c0033","opcodes":"PUSH1 0x80 PUSH1 0x40 MSTORE CALLVALUE DUP1 ISZERO PUSH1 0xF JUMPI PUSH1 0x0 DUP1 REVERT JUMPDEST POP PUSH1 0x0 DUP1 DUP2 SWAP1 SSTORE POP PUSH2 0x224 DUP1 PUSH2 0x26 PUSH1 0x0 CODECOPY PUSH1 0x0 RETURN INVALID PUSH1 0x80 PUSH1 0x40 MSTORE CALLVALUE DUP1 ISZERO PUSH2 0x10 JUMPI PUSH1 0x0 DUP1 REVERT JUMPDEST POP PUSH1 0x4 CALLDATASIZE LT PUSH2 0x57 JUMPI PUSH1 0x0 CALLDATALOAD PUSH1 0xE0 SHR DUP1 PUSH4 0x6661ABD EQ PUSH2 0x5C JUMPI DUP1 PUSH4 0x2BAECEB7 EQ PUSH2 0x7A JUMPI DUP1 PUSH4 0xA87D942C EQ PUSH2 0x84 JUMPI DUP1 PUSH4 0xD09DE08A EQ PUSH2 0xA2 JUMPI DUP1 PUSH4 0xD826F88F EQ PUSH2 0xAC JUMPI JUMPDEST PUSH1 0x0 DUP1 REVERT JUMPDEST PUSH2 0x64 PUSH2 0xB6 JUMP JUMPDEST PUSH1 0x40 MLOAD PUSH2 0x71 SWAP2 SWAP1 PUSH2 0x11D JUMP JUMPDEST PUSH1 0x40 MLOAD DUP1 SWAP2 SUB SWAP1 RETURN JUMPDEST PUSH2 0x82 PUSH2 0xBC JUMP JUMPDEST STOP JUMPDEST PUSH2 0x8C PUSH2 0xD7 JUMP JUMPDEST PUSH1 0x40 MLOAD PUSH2 0x99 SWAP2 SWAP1 PUSH2 0x11D JUMP JUMPDEST PUSH1 0x40 MLOAD DUP1 SWAP2 SUB SWAP1 RETURN JUMPDEST PUSH2 0xAA PUSH2 0xE0 JUMP JUMPDEST STOP JUMPDEST PUSH2 0xB4 PUSH2 0xFB JUMP JUMPDEST STOP JUMPDEST PUSH1 0x0 SLOAD DUP2 JUMP JUMPDEST PUSH1 0x1 PUSH1 0x0 DUP1 DUP3 DUP3 SLOAD PUSH2 0xCE SWAP2 SWAP1 PUSH2 0x167 JUMP JUMPDEST SWAP3 POP POP DUP2 SWAP1 SSTORE POP JUMP JUMPDEST PUSH1 0x0 DUP1 SLOAD SWAP1 POP SWAP1 JUMP JUMPDEST PUSH1 0x1 PUSH1 0x0 DUP1 DUP3 DUP3 SLOAD PUSH2 0xF2 SWAP2 SWAP1 PUSH2 0x1AA JUMP JUMPDEST SWAP3 POP POP DUP2 SWAP1 SSTORE POP JUMP JUMPDEST PUSH1 0x0 DUP1 DUP2 SWAP1 SSTORE POP JUMP JUMPDEST PUSH1 0x0 DUP2 SWAP1 POP SWAP2 SWAP1 POP JUMP JUMPDEST PUSH2 0x117 DUP2 PUSH2 0x104 JUMP JUMPDEST DUP3 MSTORE POP POP JUMP JUMPDEST PUSH1 0x0 PUSH1 0x20 DUP3 ADD SWAP1 POP PUSH2 0x132 PUSH1 0x0 DUP4 ADD DUP5 PUSH2 0x10E JUMP JUMPDEST SWAP3 SWAP2 POP POP JUMP JUMPDEST PUSH32 0x4E487B7100000000000000000000000000000000000000000000000000000000 PUSH1 0x0 MSTORE PUSH1 0x11 PUSH1 0x4 MSTORE PUSH1 0x24 PUSH1 0x0 REVERT JUMPDEST PUSH1 0x0 PUSH2 0x172 DUP3 PUSH2 0x104 JUMP JUMPDEST SWAP2 POP PUSH2 0x17D DUP4 PUSH2 0x104 JUMP JUMPDEST SWAP3 POP DUP3 DUP3 SUB SWAP1 POP DUP2 DUP2 SLT PUSH1 0x0 DUP5 SLT AND DUP3 DUP3 SGT PUSH1 0x0 DUP6 SLT ISZERO AND OR ISZERO PUSH2 0x1A4 JUMPI PUSH2 0x1A3 PUSH2 0x138 JUMP JUMPDEST JUMPDEST SWAP3 SWAP2 POP POP JUMP JUMPDEST PUSH1 0x0 PUSH2 0x1B5 DUP3 PUSH2 0x104 JUMP JUMPDEST SWAP2 POP PUSH2 0x1C0 DUP4 PUSH2 0x104 JUMP JUMPDEST SWAP3 POP DUP3 DUP3 ADD SWAP1 POP DUP3 DUP2 SLT ISZERO PUSH1 0x0 DUP4 SLT AND DUP4 DUP3 SLT PUSH1 0x0 DUP5 SLT ISZERO AND OR ISZERO PUSH2 0x1E8 JUMPI PUSH2 0x1E7 PUSH2 0x138 JUMP JUMPDEST JUMPDEST SWAP3 SWAP2 POP POP JUMP INVALID LOG2 PUSH5 0x6970667358 0x22 SLT KECCAK256 0xE STOP 0x2D 0x2B 0xC0 0x25 0x2B GASPRICE KECCAK256 0x4B 0xD2 SWAP9 SLT PUSH14 0xAFFB579BEF0F01C52E53691EA321 0xF 0x2A 0xB6 SLOAD PUSH5 0x736F6C6343 STOP ADDMOD SHR STOP CALLER "},"methodIdentifiers":{"count()":"06661abd","decrement()":"2baeceb7","getCount()":"a87d942c","increment()":"d09de08a","reset()":"d826f88f"}}}}}