{
  "_format": "hh-sol-artifact-1",
  "contractName": "Counter",
  "sourceName": "contracts/counter.sol",
  "abi": [
    {
      "inputs": [],
      "stateMutability": "nonpayable",
      "type": "constructor"
    },
    {
      "inputs": [],
      "name": "count",
      "outputs": [
        {
          "internalType": "int256",
          "name": "",
          "type": "int256"
        }
      ],
      "stateMutability": "view",
      "type": "function"
    },
    {
      "inputs": [],
      "name": "decrement",
      "outputs": [],
      "stateMutability": "nonpayable",
      "type": "function"
    },
    {
      "inputs": [],
      "name": "getCount",
      "outputs": [
        {
          "internalType": "int256",
          "name": "",
          "type": "int256"
        }
      ],
      "stateMutability": "view",
      "type": "function"
    },
    {
      "inputs": [],
      "name": "increment",
      "outputs": [],
      "stateMutability": "nonpayable",
      "type": "function"
    },
    {
      "inputs": [],
      "name": "reset",
      "outputs": [],
      "stateMutability": "nonpayable",
      "type": "function"
    }
  ],
  "bytecode": "0x6080604052348015600f57600080fd5b5060008081905550610224806100266000396000f3fe608060405234801561001057600080fd5b50600436106100575760003560e01c806306661abd1461005c5780632baeceb71461007a578063a87d942c14610084578063d09de08a146100a2578063d826f88f146100ac575b600080fd5b6100646100b6565b604051610071919061011d565b60405180910390f35b6100826100bc565b005b61008c6100d7565b604051610099919061011d565b60405180910390f35b6100aa6100e0565b005b6100b46100fb565b005b60005481565b60016000808282546100ce9190610167565b92505081905550565b60008054905090565b60016000808282546100f291906101aa565b92505081905550565b60008081905550565b6000819050919050565b61011781610104565b82525050565b6000602082019050610132600083018461010e565b92915050565b7f4e487b7100000000000000000000000000000000000000000000000000000000600052601160045260246000fd5b600061017282610104565b915061017d83610104565b92508282039050818112600084121682821360008512151617156101a4576101a3610138565b5b92915050565b60006101b582610104565b91506101c083610104565b9250828201905082811215600083121683821260008412151617156101e8576101e7610138565b5b9291505056fea26469706673582212200e002d2bc0252b3a204bd298126daffb579bef0f01c52e53691ea3210f2ab65464736f6c634300081c0033",
  "linkReferences": {},
  "deployedLinkReferences": {}
}